:100000008AC00000A4C00000A2C00000A0C0000080
:100010009EC000009CC000009AC0000098C0000074
:1000200096C0000094C0000092C000000C943108FB
:100030008EC000008CC000008AC0000088C0000094
:1000400086C0000084C0000082C0000080C00000A4
:100050007EC000007DC000007AC0000078C00000B3
:1000600076C0000074C0000072C0000070C00000C4
:100070006EC000001201100102000008EB034B20CB
:1000800000000102000109024300020100C0320920
:1000900004000001020201000524000110052401F2
:1000A0000301042402060524060001070582030853
:1000B00000FF09040100020A0000000705040240D5
:1000C0000000070583024000000403090424034CD8
:1000D0000069006D00650020004D0069006300723A
:1000E000006F00730079007300740065006D007389
:1000F00000000020034C0069006D006500530044BF
:100100000052002D0053006F006E00790020005057
:1001100000410000000011241FBECFEFD2E0DEBF7F
:10012000CDBF11E0A0E0B1E0E6EEF1E102C0059044
:100130000D92A831B107D9F712E0A8E1B1E001C0F2
:100140001D92A53EB107E1F7C3D30C94F10858CF37
:100150001F920F920FB60F9211248F938091180166
:10016000823069F480915B01882349F0815080934B
:100170005B01882321F4109218012E982F9A8F91F9
:100180000F900FBE0F901F901895682FE0911601E9
:10019000F091170188E30E94E5089281891710F019
:1001A00080E00895E0911401F091150184E08183CD
:1001B00081E0089580931801813041F0813018F07A
:1001C000823061F406C02E982F9A08952E9A2F98A7
:1001D00008952E9A2F9884E680935B01089527E076
:1001E00030E0482F50E0CA01022E02C09595879555
:1001F0000A94E2F780FF02C02A9A01C02A9829983F
:10020000299A215030408FEF2F3F380761F708952A
:10021000BC012DE030E048E054E1CA01022E02C0EA
:10022000969587950A94E2F780FF02C02A9A01C04A
:100230002A98299A2998215030408FEF2F3F38076C
:1002400061F720E030E0CB01022E02C09695879541
:100250000A94E2F780FF02C02A9A01C02A98299ADC
:1002600029982F5F3F4F2031310569F70895BF92DC
:10027000CF92DF92EF92FF920F931F93CF93DF9372
:1002800080917202803409F04FC281E093DF1092B6
:100290008C020DC08EEE91E01AD4E12FF0E0E65E04
:1002A000FE4F808380918C028F5F80938C0210912F
:1002B0008C02103478F380E4EDE8F2E0DF011D9267
:1002C0008A95E9F7A0911601B0911701E091140108
:1002D000F09115018C918083E0911401F09115014A
:1002E00012968C9112978283E0911401F09115017E
:1002F00083E08183AC91A53551F1A63509F42EC177
:10030000E0911401F0911501AA2309F0F6C182E0F1
:100310008087E0911401F091150183E18187E091DC
:100320001401F091150191E09287E0911401F09190
:1003300015011386E0911401F09115018091E101FE
:100340008487E0911401F09115019183D8C184E074
:100350001CDF882309F0D3C1BB24CC24DD24EEC0EC
:10036000EB2DF0E09F01220F331FDE01A20FB31F20
:1003700018968C9118978F7718968C93EE0FFF1F15
:10038000EE0FFF1FEC0FFD1F8185A82FB0E0F0845A
:10039000EE24AE29BF29B093ED01A093EC012B5FB1
:1003A0003F4F220F331FC20FD31F188100E08385F8
:1003B000282F30E0202B312B3093CE022093CD021A
:1003C000A332B10509F45EC0A432B10588F4A032AD
:1003D000B10541F1A132B10520F4509709F0AAC04E
:1003E00017C0A132B10571F1929709F0A3C03AC0CC
:1003F000A532B10509F466C0A532B10508F452C0B2
:10040000A033B10509F470C0D19709F093C07FC043
:1004100030937B0220937A0220FF02C0429A8DC063
:1004200042988BC030937D0220937C022998479A92
:100430003770220F331F220F331FC9018260E8DE9D
:1004400047987BC030937F0220937E022998469A7A
:100450003770220F331F220F331FC9018260D8DE8D
:1004600046986BC030938102209380022998459A68
:100470003770220F331F220F331FC9018260C8DE7D
:1004800045985BC0309383022093820229985C9A3E
:100490003770220F331F220F331FC9018260B8DE6D
:1004A0005C984BC0309385022093840229985D9A12
:1004B0003770220F331F220F331FC9018260A8DE5D
:1004C0005D983BC030938702209386028C918D7F8C
:1004D0008C935E9A3770220F331F220F331FC9018E
:1004E000826096DE5E9829C030938902209388024C
:1004F000299A2898822F8695869571DE80918802A8
:100500008295880F880F807C6ADE289A16C0309307
:100510008B0220938A02299A2C98822F86958695A1
:100520005EDE80918A028295880F880F807C57DE7C
:100530002C9A03C00894C11CD11CB394C09116011D
:10054000D09117018A81B81608F40ACFE0911401FE
:10055000F0911501CD2809F4CEC0CBC084E015DEA2
:10056000882309F0CCC00091160110911701A091C9
:10057000EC01B091ED016091CD027091CE0290E05E
:10058000EE24FF24A3C0292F30E0A901440F551FFA
:10059000F801E40FF51F80858F778087220F331FC6
:1005A000220F331FF801E20FF31F8185A82FB0E05F
:1005B000D085C0E0AC2BBD2B4F5F5F4F440F551F64
:1005C0002D5F3F4FA132B10509F449C0A232B105F8
:1005D000A8F4A230B105A1F1A330B10538F4109709
:1005E00029F1A130B10509F05DC025C0A031B105E8
:1005F00061F1A032B10509F055C02CC0A432B1059B
:10060000E9F1A532B10540F4A232B10569F1A33296
:10061000B10509F047C02DC0A033B105C9F1A13320
:10062000B105D9F1A532B105E9F52DC0609174028B
:10063000709175023CC0609176027091770237C06C
:10064000609178027091790232C060917A02709163
:100650007B022DC060917C0270917D0228C0609168
:100660007E0270917F0223C06091800270918102AE
:100670001EC0609182027091830219C06091840251
:100680007091850214C060918602709187020FC03C
:1006900060918802709189020AC060918A0270910B
:1006A0008B0205C00894E11CF11C6EEE7EEEE09119
:1006B0001401F0911501E40FF51F7087E09114010A
:1006C000F0911501E20FF31F60879F5FF8018281AF
:1006D000981708F458CFB093ED01A093EC017093F4
:1006E000CE026093CD02E0911401F0911501EF2844
:1006F00011F085E003C081E001C082E081831092A7
:100700008C020CC0F0E0E357FD4F8CE591E0608176
:10071000A7D180918C028F5F80938C02E0918C0234
:10072000E03480F382E046DDDF91CF911F910F919D
:10073000FF90EF90DF90CF90BF9008958091DB0203
:10074000882309F459C084E08093E9008091E8008F
:1007500082FD06C01AC06091F1008EEE91E080D15A
:100760008091F200882321F080917202803899F7FD
:100770008091F200882349F48091E800982F9B7FB4
:100780009093E8008F778093E80083E08093E900FE
:100790008091E001882381F18091E80085FFFCCF02
:1007A00005C08CE591E093D18093F1008091E00148
:1007B000882321F08091F200803498F38091F20038
:1007C0009091E800292F2E7F2093E8009F77909347
:1007D000E800803489F48091E001882369F48091F5
:1007E000E80085FFFCCF8091E800982F9E7F9093D2
:1007F000E8008F778093E80008958091DD028132D0
:1008000029F0823229F18032C9F513C08091DC02CF
:10081000813AA1F58091E800877F8093E8008CE021
:1008200091E067E070E051D38091E800982F9B7FC2
:1008300020C08091DC02813209F58091E800877F39
:100840008093E8008CE091E067E070E08AD30DC00F
:100850008091DC02813291F48091E800877F80935F
:10086000E8008091E80080FFFCCF8091E800982F9D
:100870009E7F9093E8008F778093E80082E09ACC87
:1008800082E061EC42E0F7D283E061E842E3F3D238
:1008900084E060E842E3EFD28EE993E061E03DD18D
:1008A00087E391E061E039C18DEC98E061E035C10A
:1008B0008EE993E060E031D18DEC98E060E02DD1DD
:1008C0008EEE91E0B9D08CE591E0B6D082E072CCAA
:1008D0001F93CF93DF9384B7877F84BF88E10FB6E0
:1008E000F89480936000109260000FBE80E090E06A
:1008F00020E80FB6F89420936100809361000FBE4A
:10090000209A219A229A229A249A269A279A3A9AE7
:100910003D9A3E9A3F9A549A559A569A289A2C9AFA
:100920004598469847985C985D985E9883E190E07A
:10093000909375028093740210927702109276025F
:1009400082E090E0909379028093780210927B028B
:1009500010927A0280E092E090937D0280937C0274
:1009600090937F0280937E02909381028093800215
:1009700090938302809382029093850280938402F5
:1009800090938702809386021092890210928802C7
:1009900010928B0210928A0282E00CDC13E015BDEB
:1009A00081E080936E008EEE91E046D08CE591E080
:1009B00043D01093D40247D31093D402C0E0D1E0C7
:1009C00007C08A81882319F0E881F9810995249666
:1009D00081E0CC30D807A9F72C97FACFDA01923012
:1009E00049F0933061F09130F9F4E4E7F0E022E16E
:1009F00030E01EC0E6E8F0E023E430E019C08130CA
:100A000049F0813018F0823079F408C0E9ECF0E068
:100A1000849107C0EDECF0E0849103C0E3EFF0E0D7
:100A20008491282F30E004C0E0E0F0E020E030E0E6
:100A3000ED93FC93C9010895FC018FB7F894DF0191
:100A4000A058BF4F1196FC93EE93DF01AE57BF4FF6
:100A50001196FC93EE93EC57FF4F10828FBF0895D1
:100A6000AC017FB7F894FC01EC57FF4F80818038D0
:100A700099F4FA01EE57FF4F80819181019691839D
:100A8000808320813181CA0180589F4F2817390700
:100A900031F45183408303C080818F5F8083DA010A
:100AA000A058BF4FED91FC91119760838D919C915F
:100AB0001197019611969C938E93ED91FC9111974D
:100AC000EA17FB0711F4518340837FBF0895AC01FF
:100AD0007FB7F894DC01AE57BF4FED91FC911197B1
:100AE00060818D919C911197019611969C938E93A4
:100AF000FA01EC57FF4F8081815080832D913C910A
:100B00001197CA0180589F4F2817390719F4119679
:100B10005C934E937FBF862F08959C01E0E0F1E047
:100B200008C0808191818217930711F46283089530
:100B300034968091D40290E0880F991F880F991FF6
:100B400080509F4FE817F90761F70895DF93CF931F
:100B500000D0CDB7DEB7ECEDF2E08091F1008193EB
:100B600082E0E43EF807C9F78091DC023091DD02B3
:100B7000353009F499C0363048F4313009F445C0B5
:100B8000313070F0333009F062C13FC0383009F4C1
:100B90001CC1393009F43CC1363009F058C19FC03E
:100BA000803821F0823809F052C108C09091D702F4
:100BB0008091D802882391F0926010C08091E00269
:100BC0008093E9008091EB0090E025E09695879571
:100BD0002A95E1F7982F91701092E9008091E80032
:100BE000877F8093E8009093F1001092F10080914C
:100BF000E800982F9E7F9093E8008F778093E8001D
:100C00008091E80082FFFCCFF9C0882319F0823080
:100C100009F01DC190E08F719070009719F0029754
:100C2000B9F50CC08091DE02813009F011C110923B
:100C3000D802333069F58093D8022AC08091DE0251
:100C4000882331F52091E002277009F401C1209337
:100C5000E9008091EB0080FF1BC03130A1F480914E
:100C6000EB0080618093EB0081E090E002C0880F90
:100C7000991F2A95E2F78093EA001092EA0080918A
:100C8000EB00886003C08091EB0080628093EB00F2
:100C90001092E9008091E800877F8093E8008091BE
:100CA000E800982F9E7FAEC0882309F0D0C08091C5
:100CB000E800877F8093E8008091E800982F9E7F6E
:100CC0009093E8008F778093E8008091E80080FFA0
:100CD000FCCF8091DE0280688093E300B9C0805829
:100CE000823008F0B4C08091DE029091DF02609102
:100CF000E002AE014F5F5F4F71DE9C01009709F487
:100D0000A7C08091E800877F8093E8008091E2028D
:100D10009091E3022817390720F43093E3022093DF
:100D2000E20279816A812091E2023091E30240E09F
:100D300031C08091E80082FF05C03093E302209328
:100D4000E2025CC08091E80080FFF3CF872F962FEE
:100D5000FC0105C084918093F10031969A017E2FA9
:100D60006F2F2115310539F08091F200A901415012
:100D70005040883078F38091F20040E0883009F4E8
:100D800041E08091E800982F9E7F9093E8008F7754
:100D90008093E80021153105A9F61092E302109224
:100DA000E202442369F08091E80080FFFCCF80914B
:100DB000E800982F9E7F9093E8008F778093E8005B
:100DC0008091E80082FFFCCF19C0803809F03FC055
:100DD0008091E800877F8093E8008091D90280931A
:100DE000F1008091E800982F9E7F9093E8008F7724
:100DF0008093E8008091E80082FFFCCF8091E800BA
:100E0000982F9B7F9093E8008F778093E80020C015
:100E10008823E9F43091D9022091DE022230C0F417
:100E20008091E800877F8093E8002093D902809129
:100E3000E800982F9E7F9093E8008F778093E800DA
:100E4000332319F4222309F005D11ADD01C0D5DCC2
:100E50008091E80083FF0AC08091EB00806280935C
:100E6000EB008091E800877F8093E8000F900F905F
:100E7000CF91DF9108958093E9008091EB0081602C
:100E80008093EB001092ED006093EC004093ED0036
:100E90008091EE00881F8827881F08951092F40023
:100EA00090E09093E9001092F0001092E800809199
:100EB000ED008D7F8093ED008091EB008E7F80931D
:100EC000EB009F5F953069F70895FC014091E202C5
:100ED0005091E3029B014617570708F49A0140E03E
:100EE0001EC08091E80080FFFCCF06C081918093F6
:100EF000F1002150304021F08091F2008830B0F3B1
:100F00008091F20040E0883009F441E08091E800EF
:100F1000982F9E7F9093E8008F778093E8002115AB
:100F2000310521F08091E80082FFDBCF8091E8005D
:100F300082FF02C081E00895442369F08091E800B7
:100F400080FFFCCF8091E800982F9E7F9093E8006F
:100F50008F778093E8008091E80082FFFCCF80E0EB
:100F60000895FC0118C08091E80082FFFCCF06C004
:100F70008091F10081936150704021F08091F200E6
:100F80008823B1F78091E800982F9B7F9093E80029
:100F90008F778093E8006115710529F78091E8004B
:100FA00080FFFCCF80E0089556D058D01092DB022D
:100FB0001092D9021092E4021092D8021092D70235
:100FC00019BC89B5826089BD09B400FEFDCF80914E
:100FD000D800982F9F779093D80080688093D8008E
:100FE000809163008E7F809363008091D8008F7D15
:100FF0008093D8008091E0008E7F8093E000809104
:10100000E20081608093E2008091E200886080933A
:10101000E20008958091DB02882309F049DC809189
:10102000E00081608093E00016D018D01092DB02BF
:101030001092DA021092D9028091D8008F778093B3
:10104000D80019BC0895E6DFAFDF81E08093DA02B3
:101050007894089508951092E20008951092E100A6
:1010600008951F920F920FB60F9211242F933F9362
:101070004F935F936F937F938F939F93AF93BF93A0
:10108000EF93FF938091E10080FF24C08091E20004
:1010900080FF20C08091E1008E7F8093E1008091ED
:1010A000E2008E7F8093E2008091E2008061809375
:1010B000E2008091D80080628093D80019BC81E062
:1010C0008093E402C7DF8091DB02882319F010923D
:1010D000DB02EEDB8091E10084FF2AC08091E20018
:1010E00084FF26C019BC89B5826089BD09B400FEA1
:1010F000FDCF8091D8008F7D8093D8008091E10052
:101100008F7E8093E1008091E2008F7E8093E200E9
:101110008091E20081608093E2008091DB0288236D
:1011200021F481E08093DB02BFDB1092E40292DFC6
:101130008091E10083FF20C08091E20083FF1CC00A
:101140008091E100877F8093E1001092D902809125
:10115000E1008E7F8093E1008091E2008E7F80939A
:10116000E2008091E20080618093E20097DE80E0FF
:1011700060E042E080DE6EDFFF91EF91BF91AF91C2
:101180009F918F917F916F915F914F913F912F919F
:101190000F900FBE0F901F9018950F931F93809183
:1011A000DB02882379F00091E9001092E900809138
:1011B000E80083FF04C01FB7F894C8DC1FBF0770A6
:1011C0000093E9001F910F910895991B79E004C0E5
:1011D000991F961708F0961B881F7A95C9F7809576
:0611E0000895F894FFCF12
:1011E600CD0800009E0300003701000080250000A6
:0811F600000008038D021A013C
:00000001FF
